:020000040800F2
:1000000070060020550200082103000819030008AB
:100010001D03000811030008510300080000000040
:10002000000000000000000000000000290300089C
:100030001503000800000000250300082D03000838
:100040006F0200086F0200086F0200086F020008CC
:100050006F0200086F0200086F0200086F020008BC
:100060006F0200086F0200086F0200086F020008AC
:100070006F0200086F0200086F0200086F0200089C
:100080006F0200086F0200086F0200086F0200088C
:100090006F0200086F0200086F0200086F0200087C
:1000A0006F0200086F0200086F0200086F0200086C
:1000B0006F0200086F0200086F0200086F0200085C
:1000C0006F0200086F0200086F0200086F0200084C
:1000D0006F0200086F0200086F0200086F0200083C
:1000E0006F0200086F0200086F0200086F0200082C
:1000F0006F0200086F0200086F0200086F0200081C
:100100006F0200086F0200086F0200086F0200080B
:100110006F0200086F0200086F0200086F020008FB
:100120006F0200086F0200086F0200086F020008EB
:100130006F0200086F0200086F0200086F020008DB
:100140006F0200086F0200086F0200086F020008CB
:100150006F0200086F0200086F0200086F020008BB
:100160006F0200086F0200086F0200086F020008AB
:100170006F0200086F0200086F0200080000000014
:100180006F0200086F02000800F002F800F052F859
:1001900014A696E8000CB244B344DA4501D100F04D
:1001A00049F8BAE80F000FA696E83000A5EB040561
:1001B00004EB0607AAEB0704A7F101074FEA1515A0
:1001C0004FEA3414A4F10104AC4201D300F032F838
:1001D00013F0010F18BFFB1A43F0010300F001F800
:1001E000DBE718472404000044040000103A24BF51
:1001F00078C878C1FAD8520724BF30C830C144BF8C
:1002000004680C6070470000704700000023002461
:1002100000250026103A28BF78C1FBD8520728BF16
:1002200030C148BF0B6070471FB500F0DFF91FBD3C
:1002300010B510BD00F031F81146FFF7F5FF00F0E2
:1002400089F800F04FF803B4FFF7F2FF03BC00F0A9
:1002500057F800000948804709480047FEE7FEE7D5
:10026000FEE7FEE7FEE7FEE7FEE7FEE7FEE7FEE766
:1002700004480549054A064B704700003D03000845
:100280008901000870000020700600207002002024
:1002900070020020704770477047754600F02CF8D8
:1002A000AE4605006946534620F00700854618B063
:1002B00020B5FFF7DDFFBDE820404FF000064FF00E
:1002C00000074FF000084FF0000BAC46ACE8C00947
:1002D000ACE8C009ACE8C009ACE8C00921F00701EE
:1002E0008D46704710B50446AFF300802046BDE848
:1002F0001040FFF7A8BF000000487047080000202A
:1003000001491820ABBEFEE726000200704700003E
:10031000FEE7000070470000FEE70000FEE7000077
:10032000FEE70000704700007047000040F26800E0
:10033000C2F2000001680131016070474EF688503A
:10034000CEF20000016841F47001016070470000C6
:10035000FEE70000FFF7F2FF40F20000C2F20000EB
:10036000006844F6D351C1F26201A0FB01014FF0D5
:10037000FF3000EB91110020B0EB116F0DD14EF268
:100380001002CEF2000251604EF62351CEF200016F
:10039000F0230B7090600720106043F63001C4F228
:1003A00002010A6840F6004042F00B02C4F202006B
:1003B0000A60016840F2680421F07061016002681F
:1003C00040F2004142F0A062C4F2020102600A68F9
:1003D000C2F2000422F470020A600B6840F2184274
:1003E00043F48013C4F202020B6052F80C3C4FF449
:1003F000801923F4700342F80C3C52F80C3C4FF483
:10040000806A43F4800342F80C3C4FF60043CFF679
:10041000FF73CF584FF0806B27F44077CF50CF5801
:100420004FF0400E47F48077CF500B68102723F031
:1004300003030B600B684FF4800843F001030B606B
:100440000B6823F440530B600B6843F480530B603C
:10045000012313604FF61843CFF6FF73CF5000BF50
:1004600045694FF4005785F48055456187612568DB
:10047000D4F800C09635A5EB0C06012E14DB00BFA6
:1004800000BF2668AE1B012E0EDB00BF2668AE1B28
:10049000012E09DB00BF2668AE1B012E04DB00BF66
:1004A0002668AE1B002EEBDC4FF00057876141F849
:1004B00003902668276806F13205EF1B012F13DB36
:1004C00000BF2768EF1B012F0EDB00BF2768EF1B63
:1004D000012F09DB00BF2768EF1B012F04DB00BFE2
:1004E0002768EF1B002FEBDC1027CF50C2F800A0CD
:1004F000276826687D1CAF1B012F13DB00BF276810
:10050000EF1B012F0EDB00BF2768EF1B012F09DB5C
:1005100000BF2768EF1B012F04DB00BF2768EF1B1C
:10052000002FEBDCC2F800B0276826687D1DAF1BEA
:10053000012F13DB00BF2768EF1B012F0EDB00BF6D
:100540002768EF1B012F09DB00BF2768EF1B012F76
:1005500004DB00BF2768EF1B002FEBDC52F8087CA0
:100560003F054FF4805758BF4FF080578761C2F85E
:1005700000E02768266807F59675AF1B012F13DB8F
:1005800000BF2768EF1B012F0EDB00BF2768EF1BA2
:10059000012F09DB00BF2768EF1B012F04DB00BF21
:1005A0002768EF1B002FEBDCC2F800802768266865
:1005B00007F59675AF1B012FFFF652AF00BF2768F6
:1005C000EF1B012FFFF64CAF00BF2768EF1B012F79
:1005D000FFF646AF00BF2768EF1B012FFFF640AFC5
:1005E00000BF2768EF1B002FE8DC39E7F1EE100AA7
:1005F0004FF6FF71C0F2C03120EA010040F04070B8
:10060000E1EE100A704700002806000800000020F4
:1006100008000000EC010008300600080800002077
:10062000680600000C0200080024F400000000002E
:040000050800018965
:00000001FF
